{
  "_format": "hh-sol-artifact-1",
  "contractName": "SharedWallet",
  "sourceName": "contracts/SharedWallet.sol",
  "abi": [
    {
      "inputs": [],
      "stateMutability": "nonpayable",
      "type": "constructor"
    },
    {
      "inputs": [],
      "name": "depositMoney",
      "outputs": [],
      "stateMutability": "payable",
      "type": "function"
    },
    {
      "inputs": [],
      "name": "getParticipantBalance",
      "outputs": [
        {
          "internalType": "uint256",
          "name": "",
          "type": "uint256"
        }
      ],
      "stateMutability": "view",
      "type": "function"
    },
    {
      "inputs": [],
      "name": "getWalletBalance",
      "outputs": [
        {
          "internalType": "uint256",
          "name": "",
          "type": "uint256"
        }
      ],
      "stateMutability": "view",
      "type": "function"
    },
    {
      "inputs": [
        {
          "internalType": "address",
          "name": "",
          "type": "address"
        }
      ],
      "name": "participantBalance",
      "outputs": [
        {
          "internalType": "uint256",
          "name": "",
          "type": "uint256"
        }
      ],
      "stateMutability": "view",
      "type": "function"
    },
    {
      "inputs": [
        {
          "internalType": "address payable",
          "name": "_to",
          "type": "address"
        },
        {
          "internalType": "uint256",
          "name": "_amount",
          "type": "uint256"
        }
      ],
      "name": "payoutMoney",
      "outputs": [],
      "stateMutability": "nonpayable",
      "type": "function"
    },
    {
      "inputs": [],
      "name": "totalBalance",
      "outputs": [
        {
          "internalType": "uint256",
          "name": "",
          "type": "uint256"
        }
      ],
      "stateMutability": "view",
      "type": "function"
    },
    {
      "inputs": [],
      "name": "walletOwner",
      "outputs": [
        {
          "internalType": "address",
          "name": "",
          "type": "address"
        }
      ],
      "stateMutability": "view",
      "type": "function"
    }
  ],
  "bytecode": "0x608060405234801561001057600080fd5b50336000806101000a81548173ffffffffffffffffffffffffffffffffffffffff021916908373ffffffffffffffffffffffffffffffffffffffff1602179055506106da806100606000396000f3fe6080604052600436106100705760003560e01c8063826c69b81161004e578063826c69b8146100d5578063ad7a672f14610112578063e5c665241461013d578063f4575de21461016657610070565b806316c05aa2146100755780631ae879e81461007f578063329a27e7146100aa575b600080fd5b61007d610191565b005b34801561008b57600080fd5b5061009461022d565b6040516100a191906104d1565b60405180910390f35b3480156100b657600080fd5b506100bf610251565b6040516100cc919061052c565b60405180910390f35b3480156100e157600080fd5b506100fc60048036038101906100f791906103a8565b61025b565b604051610109919061052c565b60405180910390f35b34801561011e57600080fd5b50610127610273565b604051610134919061052c565b60405180910390f35b34801561014957600080fd5b50610164600480360381019061015f91906103d1565b610279565b005b34801561017257600080fd5b5061017b610322565b604051610188919061052c565b60405180910390f35b60003414156101d5576040517f08c379a00000000000000000000000000000000000000000000000000000000081526004016101cc906104ec565b60405180910390fd5b34600160003373ffffffffffffffffffffffffffffffffffffffff1673ffffffffffffffffffffffffffffffffffffffff16815260200190815260200160002060008282546102249190610558565b92505081905550565b60008054906101000a900473ffffffffffffffffffffffffffffffffffffffff1681565b6000600254905090565b60016020528060005260406000206000915090505481565b60025481565b6002548111156102be576040517f08c379a00000000000000000000000000000000000000000000000000000000081526004016102b59061050c565b60405180910390fd5b80600260008282546102d091906105ae565b925050819055508173ffffffffffffffffffffffffffffffffffffffff166108fc829081150290604051600060405180830381858888f1935050505015801561031d573d6000803e3d6000fd5b505050565b6000600160003373ffffffffffffffffffffffffffffffffffffffff1673ffffffffffffffffffffffffffffffffffffffff16815260200190815260200160002054905090565b6000813590506103788161065f565b92915050565b60008135905061038d81610676565b92915050565b6000813590506103a28161068d565b92915050565b6000602082840312156103ba57600080fd5b60006103c884828501610369565b91505092915050565b600080604083850312156103e457600080fd5b60006103f28582860161037e565b925050602061040385828601610393565b9150509250929050565b610416816105e2565b82525050565b6000610429601283610547565b91507f43616e74206465706f73697420302045746800000000000000000000000000006000830152602082019050919050565b6000610469602c83610547565b91507f5368617265642057616c6c657420646f65736e74206861766520656e6f75676860008301527f206d6f6e657920696e20697400000000000000000000000000000000000000006020830152604082019050919050565b6104cb81610626565b82525050565b60006020820190506104e6600083018461040d565b92915050565b600060208201905081810360008301526105058161041c565b9050919050565b600060208201905081810360008301526105258161045c565b9050919050565b600060208201905061054160008301846104c2565b92915050565b600082825260208201905092915050565b600061056382610626565b915061056e83610626565b9250827fffffffffffffffffffffffffffffffffffffffffffffffffffffffffffffffff038211156105a3576105a2610630565b5b828201905092915050565b60006105b982610626565b91506105c483610626565b9250828210156105d7576105d6610630565b5b828203905092915050565b60006105ed82610606565b9050919050565b60006105ff82610606565b9050919050565b600073ffffffffffffffffffffffffffffffffffffffff82169050919050565b6000819050919050565b7f4e487b7100000000000000000000000000000000000000000000000000000000600052601160045260246000fd5b610668816105e2565b811461067357600080fd5b50565b61067f816105f4565b811461068a57600080fd5b50565b61069681610626565b81146106a157600080fd5b5056fea2646970667358221220334ed0ffc5388a488692060906a0c32e4fbb61b4aea63e213acf997ab91715b264736f6c63430008000033",
  "linkReferences": {},
  "deployedLinkReferences": {}
}