{
  "_format": "hh-sol-artifact-1",
  "contractName": "SharedWallet",
  "sourceName": "contracts/SharedWallet.sol",
  "abi": [
    {
      "inputs": [],
      "stateMutability": "nonpayable",
      "type": "constructor"
    },
    {
      "inputs": [],
      "name": "depositMoney",
      "outputs": [],
      "stateMutability": "payable",
      "type": "function"
    },
    {
      "inputs": [],
      "name": "getParticipantBalance",
      "outputs": [
        {
          "internalType": "uint256",
          "name": "",
          "type": "uint256"
        }
      ],
      "stateMutability": "view",
      "type": "function"
    },
    {
      "inputs": [],
      "name": "getWalletBalance",
      "outputs": [
        {
          "internalType": "uint256",
          "name": "",
          "type": "uint256"
        }
      ],
      "stateMutability": "view",
      "type": "function"
    },
    {
      "inputs": [
        {
          "internalType": "address",
          "name": "",
          "type": "address"
        }
      ],
      "name": "participantBalance",
      "outputs": [
        {
          "internalType": "uint256",
          "name": "",
          "type": "uint256"
        }
      ],
      "stateMutability": "view",
      "type": "function"
    },
    {
      "inputs": [
        {
          "internalType": "address payable",
          "name": "_to",
          "type": "address"
        },
        {
          "internalType": "uint256",
          "name": "_amount",
          "type": "uint256"
        }
      ],
      "name": "payoutMoney",
      "outputs": [],
      "stateMutability": "nonpayable",
      "type": "function"
    },
    {
      "inputs": [],
      "name": "totalBalance",
      "outputs": [
        {
          "internalType": "uint256",
          "name": "",
          "type": "uint256"
        }
      ],
      "stateMutability": "view",
      "type": "function"
    },
    {
      "inputs": [],
      "name": "walletOwner",
      "outputs": [
        {
          "internalType": "address",
          "name": "",
          "type": "address"
        }
      ],
      "stateMutability": "view",
      "type": "function"
    }
  ],
  "bytecode": "0x608060405234801561001057600080fd5b50336000806101000a81548173ffffffffffffffffffffffffffffffffffffffff021916908373ffffffffffffffffffffffffffffffffffffffff1602179055506107ee806100606000396000f3fe6080604052600436106100705760003560e01c8063826c69b81161004e578063826c69b8146100d5578063ad7a672f14610112578063e5c665241461013d578063f4575de21461016657610070565b806316c05aa2146100755780631ae879e81461007f578063329a27e7146100aa575b600080fd5b61007d610191565b005b34801561008b57600080fd5b5061009461022d565b6040516100a191906105c5565b60405180910390f35b3480156100b657600080fd5b506100bf610251565b6040516100cc9190610640565b60405180910390f35b3480156100e157600080fd5b506100fc60048036038101906100f79190610436565b61025b565b6040516101099190610640565b60405180910390f35b34801561011e57600080fd5b50610127610273565b6040516101349190610640565b60405180910390f35b34801561014957600080fd5b50610164600480360381019061015f919061045f565b610279565b005b34801561017257600080fd5b5061017b6103b0565b6040516101889190610640565b60405180910390f35b60003414156101d5576040517f08c379a00000000000000000000000000000000000000000000000000000000081526004016101cc906105e0565b60405180910390fd5b34600160003373ffffffffffffffffffffffffffffffffffffffff1673ffffffffffffffffffffffffffffffffffffffff1681526020019081526020016000206000828254610224919061066c565b92505081905550565b60008054906101000a900473ffffffffffffffffffffffffffffffffffffffff1681565b6000600254905090565b60016020528060005260406000206000915090505481565b60025481565b60008054906101000a900473ffffffffffffffffffffffffffffffffffffffff1673ffffffffffffffffffffffffffffffffffffffff163373ffffffffffffffffffffffffffffffffffffffff1614610307576040517f08c379a00000000000000000000000000000000000000000000000000000000081526004016102fe90610620565b60405180910390fd5b60025481111561034c576040517f08c379a000000000000000000000000000000000000000000000000000000000815260040161034390610600565b60405180910390fd5b806002600082825461035e91906106c2565b925050819055508173ffffffffffffffffffffffffffffffffffffffff166108fc829081150290604051600060405180830381858888f193505050501580156103ab573d6000803e3d6000fd5b505050565b6000600160003373ffffffffffffffffffffffffffffffffffffffff1673ffffffffffffffffffffffffffffffffffffffff16815260200190815260200160002054905090565b60008135905061040681610773565b92915050565b60008135905061041b8161078a565b92915050565b600081359050610430816107a1565b92915050565b60006020828403121561044857600080fd5b6000610456848285016103f7565b91505092915050565b6000806040838503121561047257600080fd5b60006104808582860161040c565b925050602061049185828601610421565b9150509250929050565b6104a4816106f6565b82525050565b60006104b760128361065b565b91507f43616e74206465706f73697420302045746800000000000000000000000000006000830152602082019050919050565b60006104f7602c8361065b565b91507f5368617265642057616c6c657420646f65736e74206861766520656e6f75676860008301527f206d6f6e657920696e20697400000000000000000000000000000000000000006020830152604082019050919050565b600061055d602f8361065b565b91507f596f75206e65656420746f206265207468652077616c6c6574206f776e65722060008301527f746f207061796f7574206d6f6e657900000000000000000000000000000000006020830152604082019050919050565b6105bf8161073a565b82525050565b60006020820190506105da600083018461049b565b92915050565b600060208201905081810360008301526105f9816104aa565b9050919050565b60006020820190508181036000830152610619816104ea565b9050919050565b6000602082019050818103600083015261063981610550565b9050919050565b600060208201905061065560008301846105b6565b92915050565b600082825260208201905092915050565b60006106778261073a565b91506106828361073a565b9250827fffffffffffffffffffffffffffffffffffffffffffffffffffffffffffffffff038211156106b7576106b6610744565b5b828201905092915050565b60006106cd8261073a565b91506106d88361073a565b9250828210156106eb576106ea610744565b5b828203905092915050565b60006107018261071a565b9050919050565b60006107138261071a565b9050919050565b600073ffffffffffffffffffffffffffffffffffffffff82169050919050565b6000819050919050565b7f4e487b7100000000000000000000000000000000000000000000000000000000600052601160045260246000fd5b61077c816106f6565b811461078757600080fd5b50565b61079381610708565b811461079e57600080fd5b50565b6107aa8161073a565b81146107b557600080fd5b5056fea26469706673582212205d901286f043edfc8803b79d8b8d0653e196fc0b4cf39a9473ed245832d5e62964736f6c63430008000033",
  "linkReferences": {},
  "deployedLinkReferences": {}
}